:020000040800F2
:10000000501A002035080008810400088304000805
:10001000870400088B0400088F040008000000001B
:100020000000000000000000000000009304000831
:1000300095040008000000009704000899040008D7
:100040004F0800084F0800084F0800084F08000834
:100050004F0800084F0800084F0800084F08000824
:100060004F0800084F0800084F0800084F08000814
:100070004F0800084F0800084F0800084F08000804
:100080004F0800084F0800084F0800084F080008F4
:100090004F0800084F0800084F0800084F080008E4
:1000A0004F0800084F0800084F0800084F080008D4
:1000B0004F0800084F0800084F0800084F080008C4
:1000C0004F0800084F0800084F0800084F080008B4
:1000D0004F0800084F0800084F0800084F080008A4
:1000E0004F0800084F0800084F08000800F002F809
:1000F00000F03AF80AA090E8000C82448344AAF188
:100100000107DA4501D100F02FF8AFF2090EBAE885
:100110000F0013F0010F18BFFB1A43F0010318473B
:10012000E0AD000000AE0000103A24BF78C878C1EE
:10013000FAD8520724BF30C830C144BF04680C60ED
:10014000704700000023002400250026103A28BF35
:1001500078C1FBD8520728BF30C148BF0B60704739
:100160001FB51FBD10B510BD02F006FC1146FFF70C
:10017000F7FF00F009F802F038FC03B4FFF7F2FFD4
:1001800003BC00F0F7FA00008EB0002211464FF4D5
:10019000E13000F0FEFA95A002F088FB9BA002F08F
:1001A00085FB00F06BFA00F0DFFA01F055F91CE175
:1001B00001F0CAFA994801F0A2FB002098490860B2
:1001C00001F047FC022000F0BAFA01F056FA01F003
:1001D0004BFC944801F093FB01F03BFC022000F043
:1001E000AEFA01F04AFA904801F09CFB002541E08C
:1001F00000243BE0002735E000262FE040222021AC
:100200008A4800EB0520BA23CDE90930CDE90B126D
:100210001146864800EB04209A224023CDE905329E
:10022000CDE9070182497022804800EB0720CDE923
:10023000023204910190482000907C4800EB062295
:100240002821184601F024FC642000F054FA1CB95F
:10025000012F01D106B910E0701CC6B20A2ECDDB09
:10026000781CC7B2062FC7DB601CC4B20A2CC1DBE6
:10027000681CC5B2062DBBDB00BF01F0FEF901F022
:10028000F3FB01F0E6FB032000F059FAFF204FF4E6
:100290008773C82211460090664801F0E1FD01F025
:1002A0008DFAFF2001F0D6FE0120034600220A212C
:1002B0000090052001F003FF0120022300221921F4
:1002C0000090052001F0FBFE0120032300222821DD
:1002D0000090052001F0F3FE0120042300223721C5
:1002E0000090052001F0EBFE00200121CDE9000186
:1002F000322337220A2102900F2001F031FF002023
:100300000121CDE900010A233722322102900F207A
:1003100001F026FF01200021009132233722CDE990
:1003200001100A210F2001F086FF01200022CDE9F3
:10033000002032236E220A210290462001F07BFF2A
:10034000012000210B461222CDE900101E2187203A
:1003500001F0CDFF01200090002312221E21019008
:10036000B02001F0C4FF0020FF21334B33A2CDE9C0
:1003700000104B210A2002F022F90020FF21314B0E
:1003800031A2CDE9001064210A2002F018F9002002
:10039000FF21314B31A2CDE9001082210A2002F069
:1003A0000EF90020FF21314B31A2CDE90010A02130
:1003B0000A2002F004F90120194908601D4801F0E3
:1003C00040F900202D49C1F8A00101F042FB0320B3
:1003D00000F0B5F901F051F901F046FB01F039FBED
:1003E000022000F0ACF900BFFEE7E1E60D0A2D2D7A
:1003F00020312E3534696E636820657061706572D6
:100400002064656D6F202D2D0D0A000053544D336F
:100410003246313033433854360D0A00843A0008EE
:10042000A08121420C4E000894610008842E00082F
:1004300084380008500000203000002061626364AE
:1004400065666700380000204142436162633031D5
:10045000323334350000000040000020312E3534A6
:100460002220452D50617065720000004800002078
:100470005345454E475245415400000000802142FB
:10048000704700BFFEE700BFFEE700BFFEE700BF0A
:10049000FEE7704770477047704700000CB50020BA
:1004A000019000906C48006840F480306A49086010
:1004B00000BF6948006800F4003000900198401CBB
:1004C0000190009818B90198B0F5A06FF1D1624879
:1004D000006800F4003010B10120009001E000201D
:1004E00000900098012843D15C48006840F010005B
:1004F0005A4908600846006820F003000860084672
:10050000006840F002000860534840685249486063
:100510000846406848600846406840F4806048608B
:100520000846406820F47C1048600846406840F463
:10053000E81048600846006840F08070086000BF1E
:100540004548006800F000700028F9D04248406833
:1005500020F00300404948600846406840F002002F
:10056000486000BF3C48406800F00C000828F9D102
:100570000CBD10B5FFF792FF10BD10B536480068EE
:1005800040F001003449086008464068344908409A
:100590003149486008460068324908402E490860E1
:1005A0000846006820F4802008600846406820F46F
:1005B000FE0048604FF41F008860FFF7DAFF4FF03D
:1005C00000602949086010BD10B5002100200022FC
:1005D000214B5B6803F00C0121B1042906D00829E6
:1005E00028D107E0214B224C236027E01F4B204CF1
:1005F000236023E0184B5B6803F47010164B5B68B4
:1006000003F48032022303EB904022B9194B434399
:10061000174C23600DE0104B5B6803F4003323B1EB
:10062000144B4343124C236003E0104B4343104CE4
:10063000236003E00D4B0E4C236000BF00BF064B50
:100640005B68C3F303130C4CE15C094B1B68CB40A4
:10065000074C236010BD0000001002400020024043
:100660000000FFF8FFFFF6FE08ED00E000127A0040
:100670000000002000093D000400002010B56FF0CC
:10068000040000F046F9344800683449B0FBF1F04A
:10069000334908700846007800EB4001C1EBC010F8
:1006A0004FF6FF7101EAC0002E49088010BD0146D7
:1006B0002B4A12784A434FF0E0235A6100229A6194
:1006C0001A46126942F001021A6100BF4FF0E0229F
:1006D000106900F001021AB100F48032002AF5D04E
:1006E0004FF0E022126922F001024FF0E0231A617C
:1006F00000229A61704701461A4A12884A434FF015
:10070000E0235A6100229A611A46126942F00102FE
:100710001A6100BF4FF0E022106900F001021AB127
:1007200000F48032002AF5D04FF0E022126922F066
:1007300001024FF0E0231A6100229A61704730B540
:100740000446002505E04FF47A70FFF7D4FF681CDB
:1007500085B2A542F7DB30BD0000002000127A0010
:10076000140000201600002010B54FF4A06000F027
:1007700081F810BD014600BF704700BF2B4A1288A8
:1007800002F04002002AF9D0C2B2284B1B1D1A8089
:10079000704770B586B004460E461546012144F2F6
:1007A000050000F0F1FB4FF40070ADF814000320D9
:1007B0008DF8160018208DF8170005A91C4800F0C8
:1007C00027F94FF48060ADF8140004208DF817006D
:1007D00005A9174800F01CF925208DF800008DF8B8
:1007E00001608DF8025001208DF80300684600F08A
:1007F00046F801940020ADF80800ADF80A00ADF805
:100800000C00ADF810000C20ADF80E0001A907484F
:1008100000F061FC012240F22551044800F0F3FC95
:100820000121024800F0E3FC06B070BD0038014031
:10083000000801400948804709480047FEE7FEE7F5
:10084000FEE7FEE7FEE7FEE7FEE7FEE7FEE7FEE780
:1008500004480549054A064B704700007B0500081F
:10086000ED00000850140020501A002050160020FF
:100870005016002031490143314A1160704770B56C
:10088000002100230F22C47804B32D4C246804F403
:10089000E064C4F5E064210AC1F10403CA4044786D
:1008A00004FA03F18478144021430901254C0678A9
:1008B000A155047804F01F050124AC4005786D11A2
:1008C000AD0005F1E025C5F8004109E0047804F029
:1008D0001F050124AC401C4D0678761145F82640D2
:1008E00070BD1A4A0A400243154B1B1F1A6070471D
:1008F00039B1134A121D12680243114B1B1D1A60B5
:1009000006E00F4A121D126882430D4B1B1D1A6030
:100910007047042808D14FF0E021096941F0040133
:100920004FF0E022116107E04FF0E021096921F06A
:1009300004014FF0E0221161704700000000FA0549
:100940000CED00E000E400E080E100E080FFFF1F2C
:1009500010B50446CC48844208D10121042000F09F
:100960002DFB0021042000F029FB46E0C74884420B
:1009700008D10121082000F021FB0021082000F00F
:100980001DFB3AE0C248844208D10121102000F04A
:1009900015FB0021102000F011FB2EE0BD48844221
:1009A00008D10121202000F009FB0021202000F0C7
:1009B00005FB22E0B848844208D10121402000F024
:1009C000FDFA0021402000F0F9FA16E0B348844215
:1009D00008D10121802000F0F1FA0021802000F0F0
:1009E000EDFA0AE0AE48844207D10121801500F0FB
:1009F000E5FA0021A01500F0E1FA10BD10B50121C3
:100A0000084600F0DBFA0021012000F0D7FA10BD03
:100A10002DE9F04102460025002600200023002495
:100A2000002791F803C00CF00F0591F803C00CF0FB
:100A3000100CBCF1000F03D091F802C04CEA050580
:100A400091F800C0BCF1000F31D0146800202BE0F9
:100A50004FF0010C0CFA00F3B1F800C00CEA0306E9
:100A60009E4220D183004FF00F0C0CFA03F7BC43D9
:100A700005FA03FC4CEA040491F803C0BCF1280F0A
:100A800006D14FF0010C0CFA00FCC2F814C00AE0C9
:100A900091F803C0BCF1480F05D14FF0010C0CFADE
:100AA00000FCC2F810C0401C0828D1D31460B1F873
:100AB00000C0BCF1FF0F34DD546800202EE000F1CF
:100AC000080C4FF0010808FA0CF3B1F800C00CEA6A
:100AD00003069E4221D183004FF00F0C0CFA03F75E
:100AE000BC4305FA03FC4CEA040491F803C0BCF1D2
:100AF000280F05D100F1080C08FA0CF8C2F8148090
:100B000091F803C0BCF1480F07D100F1080C4FF079
:100B1000010808FA0CF8C2F81080401C0828CED34F
:100B20005460BDE8F0814FF6FF71018002218170B1
:100B30000421C17070470246002093680B400BB13E
:100B4000012000E0002070470146886880B27047AD
:100B500002460020D3680B400BB1012000E00020CA
:100B600070470146C86880B27047016170474161B3
:100B700070470AB1016100E041617047C160704790
:100B80004FF480320A4382618161826182698269A5
:100B9000704702460020434B18684FF68073184098
:100BA00040EA021008433F4B186070473E49C86155
:100BB0007047F0B50A46002300240021002500F00C
:100BC0000046B6F1004F02D1364EF16901E0354ED4
:100BD0007168C0F3034583B200F44016B6F5401FB8
:100BE00008D121F070612F4E766826F070662D4F87
:100BF0007E6012E000F48016B6F5801F06D1032651
:100C000006FA05F4A14341F0706106E0460D360195
:100C100003FA06F6B14341F0706122B1460D360188
:100C200003FA06F6314300F00046B6F1004F02D158
:100C30001C4EF16101E01B4E7160F0BD30B5002229
:100C40008B071C0F0F2303FA04F2164B08338C108A
:100C500053F824309343134C08348D1044F8253056
:100C600023468C1053F824308C07240F00FA04F428
:100C700023430C4C08348D1044F8253030BD0A490C
:100C8000DC3108607047000000080140000C0140A2
:100C9000001001400014014000180140001C0140F8
:100CA000002001400000014000002042DF480068B1
:100CB00040F00100DD49086008464068DC49084012
:100CC000DA49486008460068DA490840D7490860B0
:100CD0000846006820F4802008600846406820F438
:100CE000FE0048604FF41F0088607047CF490968D4
:100CF00021F48031CD4A11601146096821F4802128
:100D00001160B0F5803F03D0B0F5802F0ED106E022
:100D1000C649096841F48031C44A116007E0C349FB
:100D2000096841F4A021C14A116000E000BF00BF82
:100D3000704710B501460022002300204A11012A05
:100D400002D1BA4C236806E0022A02D1B74C236ACA
:100D500001E0B64C636A01F01F02012494401C407C
:100D60000CB1012000E0002010BD38B5002000903B
:100D70000024002500BF3120FFF7DBFF0546009867
:100D8000401C00900098B0F5A06F01D0002DF2D06B
:100D90003120FFF7CEFF08B1012400E000242046F7
:100DA00038BD01460020A14A106820F0F80040EA52
:100DB000C10010607047A0490860704702460020DB
:100DC0009A4B586820F47C1042EA01031843974B71
:100DD0005860704798490866704701460020934A5A
:100DE000506820F003000843506070478F48406807
:100DF00000F00C007047014600208C4A506820F03B
:100E0000F00008435060704701460020874A506850
:100E100020F4E06008435060704701460020834A98
:100E2000506820F4605040EAC1005060704729B11A
:100E30007E4A527A02437D4B5A7204E07B4A527AD0
:100E400082437A4B5A7270477B49D83108607047A9
:100E500001460020754A506820F440400843506025
:100E600070470021714A20321170704A82F82010B8
:100E7000012802D004280AD104E001216B4A203263
:100E8000117005E00521694A2032117000E000BFB1
:100E900000BF70476949086070476449096A0143A7
:100EA000624A11627047654944390860704730B53D
:100EB00000210022002400235C4D6D6805F00C0128
:100EC00021B1042905D0082923D105E05C4D056036
:100ED00022E05B4D05601FE0544D6D6805F4701213
:100EE000524D6D6805F48034022505EB92421CB921
:100EF000544D554305600BE04C4D6D6805F40035CD
:100F00001DB1504D5543056002E04D4D5543056000
:100F100002E04B4D056000BF00BF444D6D6805F019
:100F2000F0010909484D6B5C0568DD4045603F4DA7
:100F30006D6805F4E061090A434D6B5C4568DD406E
:100F400085603A4D6D6805F46051C90A3E4D6B5C91
:100F50004568DD40C560354D6D6805F44041890B3D
:100F60003A4D6B5CC568B5FBF3F5056130BD29B141
:100F70002E4A526902432D4B5A6104E02B4A5269B2
:100F800082432A4B5A61704729B1284A9269024329
:100F9000264B9A6104E0254A92698243234B9A6169
:100FA000704729B1214AD2690243204BDA6104E03B
:100FB0001E4AD26982431D4BDA61704729B11B4A30
:100FC000D2680243194BDA6004E0184AD2688243BF
:100FD000164BDA60704729B1144A12690243134B69
:100FE0001A6104E0114A12698243104B1A6170477A
:100FF00012494039086070470F49C86470470B496F
:10100000C87170470948406A40F0807007494862DB
:10101000704701460020054A92680A400AB1012043
:1010200000E00020704701498872704700100240BC
:101030000000FFF8FFFFF6FE00004242800442423B
:1010400000127A0000093D001C0000202C00002046
:1010500010B50446FB48844209D101218803FFF7FB
:10106000ADFF00214FF48040FFF7A8FF32E0F648C3
:10107000844209D101214804FFF7ADFF00214FF45C
:101080000030FFF7A8FF25E0F048844209D1012194
:101090008804FFF7A0FF00214FF48020FFF79BFF9B
:1010A00018E0EB48844209D10121C804FFF793FFFF
:1010B00000214FF40020FFF78EFF0BE0E54884424B
:1010C00008D101210805FFF786FF00214FF48010A9
:1010D000FFF781FF10BD2DE9F04786B005460E46AB
:1010E0000024A24600BFA1460027B08900B100BF7E
:1010F0002F462C8A4CF6FF700440F08804432C8263
:10110000AC894EF6F3100440B088318908437189E8
:1011100008430443AC81AC8A4FF6FF400440B089D9
:101120000443AC8201A8FFF7C2FEC648874202D141
:10113000DDF810A001E0DDF80CA0A88900F4004063
:1011400040B10AEBCA0000EB0A1031684900B0FB5D
:10115000F1F807E00AEBCA0000EB0A1031688900D9
:10116000B0FBF1F86420B8FBF0F004012009642121
:1011700001FB1089A88900F4004040B1322000EB47
:10118000C900B0FBF1F000F00700044308E0322092
:1011900000EB09106421B0FBF1F000F00F000443F4
:1011A0002C8106B0BDE8F0874FF416510160002194
:1011B0008180C18001810C214181002181817047A2
:1011C00010B502460020108A4FF2FF0318400B882A
:1011D0004C8823438C882343CC88234318431082B4
:1011E00010BD0021018041808180C180704721B104
:1011F000828942F40052828104E082894DF6FF73B5
:101200001A4082817047F0B503460024002600256D
:10121000002040F66A17B94200D100BF1846C1F35A
:10122000421401F01F06012707FA06F5012C01D12F
:101230000C3004E0022C01D1103000E014301AB15F
:1012400007682F43076002E00768AF430760F0BDFF
:101250001AB1838A0B43838202E0838A8B438382A1
:101260007047028A4FF6F0731A400282028A0A43DC
:101270000282704782894FF2FF731A40828182890D
:101280000A438281704721B1828942F00202828141
:1012900004E082894FF6FD731A4082817047028A0A
:1012A0004FF6DF731A400282028A0A4302827047B5
:1012B00021B1028A42F48042028204E0028A4BF6A3
:1012C000FF731A4002827047C1F3080282807047A0
:1012D00001468888C0F308007047818941F0010108
:1012E00081817047028BD2B20283028B42EA0122D3
:1012F00002837047028B02F47F420283028B0A430F
:101300000283704721B1828A42F02002828204E087
:10131000828A4FF6DF731A408282704721B1828A37
:1013200042F01002828204E0828A4FF6EF731A4084
:101330008282704721B1828A42F00802828204E0F0
:10134000828A4FF6F7731A408282704721B18289F0
:1013500042F40042828103E08289C2F30E0282815C
:10136000704721B1828A42F40062828204E0828A5C
:101370004FF2FF731A4082827047828A4FF6FB73E6
:101380001A408282828A0A438282704721B1828A0D
:1013900042F00202828204E0828A4FF6FD731A4014
:1013A0008282704702460020B1F5007F00D100BF65
:1013B00013880B400BB1012000E00020704701F4BE
:1013C0000072B2F5007F00D100BFCA4302807047AF
:1013D00070B50246002400230025002040F66A165E
:1013E000B14200D100BFC1F3421501F01F03012635
:1013F00006FA03F3012D02D19689334006E0022D4F
:1014000002D1168A334001E0968A33400C1201263D
:1014100006FA04F41688344013B10CB1012000E040
:10142000002070BD10B50022002340F66A14A142CE
:1014300000D100BF0A1201249440A3B2DC4304800F
:1014400010BD00000038014000440040004800404A
:10145000004C00400050004008B501210C20FFF76F
:1014600093FD4FF43040ADF8000010208DF80300DC
:1014700003208DF802006946FE48FFF7C9FA4FF4D1
:101480001060ADF8000010208DF8030003208DF8E7
:1014900002006946F848FFF7BBFA4FF48050ADF8F8
:1014A000000028208DF8030003208DF80200694613
:1014B000F148FFF7ADFA4FF48070ADF8000010204E
:1014C0008DF8030003208DF802006946E948FFF714
:1014D0009FFA0020E949086008BD002117E00022BA
:1014E000E64B14331A6000F0800222B10122E34B74
:1014F0001C331A6003E00022E04B1C331A604206E2
:10150000100E0122DD4B14331A604A1CD1B2082997
:10151000E5DB704710B504460020D849103108605B
:10152000D749C1F8A0012046FFF7D7FF0120D349D2
:101530001031086010BD10B504460020CF491031AD
:1015400008600120CE49C1F8A0012046FFF7C5FF81
:101550000120CA491031086010BD06E042F6E06182
:1015600000BF0A1EA1F10101FBD1021EA0F1010082
:10157000F4D1704700B506E00A20FFF7EEFFC1483E
:10158000006800B900E0F7E700BF00BD10B50146F4
:101590000023BA4C14342360002217E001F08003CA
:1015A00023B10123B54C1C34236003E00023B34C6A
:1015B0001C3423600123B14C143423600023B24C4B
:1015C000C4F8B4314B06190E531CDAB2082AE5DB15
:1015D00010BD10B504460120A84910310860002054
:1015E000A949C1F8B001A749703108602046FFF74A
:1015F000CDFF0120A449C1F8B00110BD10B50446CB
:1016000001209E491031086000209F49C1F8B001B7
:1016100001209C49703108602046FFF7B7FF012088
:101620009949C1F8B00110BD00B52220FFF7D1FFE4
:10163000F720FFF7E3FF2020FFF7CBFFFFF79AFF2C
:1016400000BD2DE9F041064619274FF0C8082420B7
:10165000FFF760FF00250AE0002405E005FB0741D5
:10166000705CFFF768FF641CBC42F7D36D1C4545F6
:10167000F2D3FFF7D9FFBDE8F08100B50020814922
:101680007C3108600A20FFF768FF01207C49C1F81F
:10169000AC010A20FFF761FFFFF76CFF1220FFF794
:1016A00098FFFFF767FF0120FFF793FF0A20FFF77E
:1016B00054FFC720FFF7A2FF0A20FFF74EFF0020CC
:1016C000FFF79CFF0A20FFF748FF0020FFF796FF77
:1016D0001120FFF77EFF0120FFF790FF4420FFF766
:1016E00078FF0020FFF78AFF1820FFF787FF4520CB
:1016F000FFF76FFFC720FFF781FF0020FFF77EFF96
:101700000020FFF77BFF0020FFF778FF3C20FFF76A
:1017100060FF0520FFF772FF1820FFF75AFF8020B7
:10172000FFF76CFF4E20FFF754FF0020FFF766FF26
:101730004F20FFF74EFFC720FFF760FF0020FFF7A5
:101740005DFFFFF717FF00BD00B500204D497C315C
:1017500008600A20FFF701FF01204949C1F8AC01E8
:101760000A20FFF7FAFE1220FFF733FFFFF702FF10
:101770001820FFF72EFF8020FFF740FF2220FFF701
:1017800028FFB120FFF73AFF2020FFF722FFFFF7E5
:10179000F1FE1A20FFF71DFF6420FFF72FFF002046
:1017A000FFF72CFF2220FFF714FF9120FFF726FF01
:1017B0002020FFF70EFFFFF7DDFE00BD00B5002083
:1017C00030497C3108600A20FFF7C7FE01202C4910
:1017D000C1F8AC010A20FFF7C0FEFFF7CBFE1220D4
:1017E000FFF7F7FEFFF7C6FE0120FFF7F2FE0A2023
:1017F000FFF7B3FEC720FFF701FF0A20FFF7ADFE9A
:101800000020FFF7FBFE0A20FFF7A7FE0120FFF7ED
:10181000F5FE1120FFF7DDFE0120FFF7EFFE44206B
:10182000FFF7D7FE0020FFF7E9FE1820FFF7E6FEDE
:101830004520FFF7CEFEC720FFF7E0FE0020FFF7B0
:10184000DDFE0020FFF7DAFE0020FFF7D7FE3C2088
:10185000FFF7BFFE0520FFF7D1FE1820FFF7B9FE06
:101860008020FFF7CBFE4E20FFF7B3FE0020FFF7EE
:10187000C5FE0BE0000C014000080140A0812142A0
:101880000000214230012142008021424F20FFF719
:10189000A0FEC720FFF7B2FE0020FFF7AFFEFFF764
:1018A00069FE00BD00B52220FFF793FEC720FFF7B9
:1018B000A5FE2020FFF78DFEFFF75CFE00BD00B502
:1018C0002220FFF786FEFF20FFF798FE2020FFF77B
:1018D00080FEFFF74FFE00BD30B504462420FFF721
:1018E00078FE002504E02078FFF788FE641C6D1C5C
:1018F00041F288308542F6D3FFF796FE30BD30B511
:1019000004462420FFF765FE002504E02078FFF759
:1019100075FE641C6D1C41F288308542F6D3FFF7DA
:10192000C1FF30BD70B5044626462420FFF751FEA6
:10193000002504E02078FFF761FE641C6D1C41F275
:1019400088308542F6D334462620FFF742FE002534
:1019500004E02078FFF752FE641C6D1C41F28830D1
:101960008542F6D3FFF760FE70BD2DE9FE4F0446B9
:101970000F4690469946DDF830B0E40804EBDB00F2
:10198000401E0290002001903D46FF2F02D9280AF8
:101990000190EDB20020009007EB0900461EFF2EDB
:1019A00002D9300A0090F6B20020FE4908600A20F1
:1019B000FFF7D3FD0120FC49C1F8AC010A20FFF775
:1019C000CCFD3C20FFF705FE8020FFF717FE4420EA
:1019D000FFF7FFFDE0B2FFF711FE0299C8B2FFF773
:1019E0000DFE4520FFF7F5FDE8B2FFF707FE019970
:1019F000C8B2FFF703FEF0B2FFF700FE0099C8B2CD
:101A0000FFF7FCFD4E20FFF7E4FDE0B2FFF7F6FD27
:101A10004F20FFF7DEFDE8B2FFF7F0FD0199C8B2F5
:101A2000FFF7ECFD2420FFF7D4FD4FF0000A07E09C
:101A300098F80000FFF7E2FD08F101080AF1010A39
:101A400009FB0BF0BAEBD00FF2D3FFF738FFBDE87C
:101A5000FE8F00B51020FFF7BCFD0120FFF7CEFD83
:101A60006420FFF77AFD00BD30B52420FFF7B1FDFB
:101A7000002408E0002503E0FF20FFF7BFFD6D1CF8
:101A8000192DF9D3641CC82CF4D3FFF7CDFD30BD5C
:101A90002DE9FF4F81B08346DDE919784FEADB0B72
:101AA0000BEBD800401E00904FF000090298451E35
:101AB0000298FF2802D94FEA1529EDB24FF0000A2B
:101AC00002983844441EFF2C02D94FEA142AE4B28B
:101AD0000020B44908600A20FFF73FFD0120B24909
:101AE000C1F8AC010A20FFF738FD3C20FFF771FD7B
:101AF0008020FFF783FD4420FFF76BFD0BF0FF0014
:101B0000FFF77CFD0099C8B2FFF778FD4520FFF78D
:101B100060FDE8B2FFF772FD09F0FF00FFF76EFD10
:101B2000E0B2FFF76BFD0AF0FF00FFF767FD4E2004
:101B3000FFF74FFD0BF0FF00FFF760FD4F20FFF7B1
:101B400048FDE8B2FFF75AFD09F0FF00FFF756FD28
:101B50002420FFF73EFD002607E003990878FFF7F1
:101B60004DFD0398401C0390761C07FB08F0B6EB74
:101B7000D00FF2D30498C0080490049800EBD8006A
:101B8000401E00904FF000090E98451E0E98FF2849
:101B900002D94FEA1529EDB24FF0000A0E983844E9
:101BA000441EFF2C02D94FEA142AE4B24420FFF766
:101BB00010FD0499C8B2FFF721FD0099C8B2FFF7E4
:101BC0001DFD4520FFF705FDE8B2FFF717FD09F001
:101BD000FF00FFF713FDE0B2FFF710FD0AF0FF0072
:101BE000FFF70CFD4E20FFF7F4FC0499C8B2FFF795
:101BF00005FD4F20FFF7EDFCE8B2FFF7FFFC09F011
:101C0000FF00FFF7FBFC2420FFF7E3FC002607E0C2
:101C10000F990878FFF7F2FC0F98401C0F90761C84
:101C200007FB08F0B6EBD00FF2D31098C008109065
:101C3000109800EBD800401E00904FF0000911985A
:101C4000451E1198FF2802D94FEA1529EDB24FF031
:101C5000000A11983844441EFF2C02D94FEA142A76
:101C6000E4B24420FFF7B5FC1099C8B2FFF7C6FCF8
:101C70000099C8B2FFF7C2FC4520FFF7AAFCE8B202
:101C8000FFF7BCFC09F0FF00FFF7B8FCE0B2FFF77C
:101C9000B5FC0AF0FF00FFF7B1FC4E20FFF799FCFE
:101CA0001099C8B2FFF7AAFC4F20FFF792FCE8B2E8
:101CB000FFF7A4FC09F0FF00FFF7A0FC2420FFF7CA
:101CC00088FC002607E012990878FFF797FC129825
:101CD000401C1290761C07FB08F0B6EBD00FF2D335
:101CE0001398C0081390139800EBD800401E009082
:101CF0004FF000091498451E1498FF2802D94FEAA6
:101D00001529EDB24FF0000A14983844441EFF2CF8
:101D100002D94FEA142AE4B24420FFF75AFC13997F
:101D2000C8B2FFF76BFC0099C8B2FFF767FC45200B
:101D3000FFF74FFCE8B2FFF761FC09F0FF00FFF787
:101D40005DFCE0B2FFF75AFC0AF0FF00FFF756FC1B
:101D50004E20FFF73EFC1399C8B2FFF74FFC4F200F
:101D6000FFF737FCE8B2FFF749FC09F0FF00FFF787
:101D700045FC2420FFF72DFC002607E01599087884
:101D8000FFF73CFC1598401C1590761C07FB08F0EB
:101D9000B6EBD00FF2D31698C0081690169800EB49
:101DA000D80003E0AC01214200002142401E009017
:101DB0004FF000091798451E1798FF2802D94FEADF
:101DC0001529EDB24FF0000A17983844441EFF2C35
:101DD00002D94FEA142AE4B24420FFF7FAFB16991D
:101DE000C8B2FFF70BFC0099C8B2FFF707FC45200B
:101DF000FFF7EFFBE8B2FFF701FC09F0FF00FFF788
:101E0000FDFBE0B2FFF7FAFB0AF0FF00FFF7F6FB7D
:101E10004E20FFF7DEFB1699C8B2FFF7EFFB4F200D
:101E2000FFF7D7FBE8B2FFF7E9FB09F0FF00FFF788
:101E3000E5FB2420FFF7CDFB002607E01899087882
:101E4000FFF7DCFB1898401C1890761C07FB08F085
:101E5000B6EBD00FF2D3FFF732FD05B0BDE8F08F3F
:101E60002DE9F0410646069F0020FE4C20602046EA
:101E700006600181428187810C464FEAE17C01EBDB
:101E80005C7C4FEAEC0CA1EBCC0CBCF1000F07D151
:101E90000D464FEAE57C05EB5C7C4FEAEC0C08E074
:101EA00008464FEAE17C01EB5C7C4FEAEC0C0CF15C
:101EB000010CDFF8B083A8F812C040468282C381CB
:101EC0000020444620820BB1B42B03D1E548818029
:101ED000C28002E0E3488280C180BDE8F081E14930
:101EE0000860704730B15A2804D0B42802D0B0F549
:101EF000877F01D1DB49C881704728B1012803D011
:101F0000022801D0032801D1D649088270472DE963
:101F1000F04103460C461746D24EB6889E4203DB7C
:101F2000D04EF688A64201DABDE8F081CD4EF689A2
:101F30003EB15A2E08D0B42E0DD0B6F5877F1CD1F5
:101F400014E01846214619E0C64E3689361B761E27
:101F5000B0B2194612E0C34E3689F61A761EB0B2F8
:101F6000C04E7689361B761EB1B207E02046BD4EC4
:101F70007689F61A761EB1B200E0D5E700BFB94EF9
:101F8000368A36B1012E05D0022E09D0032E18D183
:101F90000CE017E0B34E3689361A761EB0B211E067
:101FA000B04E7689761A761EB1B20BE0AD4E368908
:101FB000361A761EB0B2AB4E7689761A761EB1B25C
:101FC00000E0B1E700BFA74E3689864203DBA54E8D
:101FD00076898E4200DAA7E706464FEAE07C00EBFE
:101FE0005C7C4FEAEC0CDFF87C82B8F8128001FBD5
:101FF00008C29C4E3668B55CAFB906464FEAE07C35
:1020000000EB5C7C4FEAEC0CA0EBCC084FF0800CB2
:102010004CFA08FC25EA0C0CDFF84882D8F800805E
:1020200008F802C014E006464FEAE07C00EB5C7C56
:102030004FEAEC0CA0EBCC084FF0800C4CFA08FCFB
:102040004CEA050CDFF81C82D8F8008008F802C0C2
:1020500000BF69E730B50246002110E0002008E02B
:10206000804C648A01FB04037E4D2D68EA54441CB5
:10207000A0B27C4C648A8442F2DC4C1CA1B2794C44
:10208000A48A8C42EADC30BD2DE9F04706460F46B3
:1020900090469946DDF820A03D460CE0344606E027
:1020A000524629462046FFF732FF601C84B2444561
:1020B000F6DB681C85B24D45F0DBBDE8F0872DE905
:1020C000F0470746884691461C46DDF820A0654843
:1020D0008088B84203DB6348C088404501DABDE828
:1020E000F087BAF1010F23D100251CE0002613E090
:1020F0007819001B03D408EB0600001B00D50FE085
:1021000008EB0602121B91B27A19121B90B24A46D2
:10211000FFF7FDFE701C06B26000401EB042E7DC17
:1021200000BF681C05B26000401EA842DEDC15E05E
:10213000002511E000260BE008EB0602521E91B2CA
:102140007A19521E90B24A46FFF7E1FE701C06B2A1
:10215000A642F1DB681C05B2A542EBDB00BFBEE77F
:102160002DE9F04F86B004460D4616461F46A046A0
:102170000595301B01D4301B00E0A01B0490781B98
:1021800001D4781B00E0E81B82460498A0EB0A0902
:10219000B44202DD4FF0FF3000E001200290BD426A
:1021A00002DD4FF0FF3000E0012001904FF0000B06
:1021B00000BF0BF1010B119801280ED103209BFBEE
:1021C000F0F100FB11B040B9012000904046DDE97C
:1021D0000F230599FFF773FF09E0119838B9012023
:1021E00000904046DDE90F230599FFF768FFB045F1
:1021F00003D10598B84200D119E04FEA4900039095
:10220000CAF100010398884205DBA9EB0A0902988C
:1022100040441FFA80F8DDE903018842C9DC0498D4
:10222000814401990598084480B20590C1E700BF38
:1022300006B0BDE8F08F2DE9FE4F81460F4692466D
:102240009846DDE90DB50C9C0648808848450EDBB4
:102250000448C088B8420ADB02488088504506DB43
:10226000004801E0D8130020C088404501DABDE8ED
:10227000FE8FBBF1010F10D13E460BE0002033462C
:1022800052463146CDE9004502904846FFF768FFC7
:10229000701C86B24645F1DB27E000203B465246E3
:1022A0003946CDE9004502904846FFF759FF002026
:1022B00043464A463946CDE9004502904846FFF775
:1022C0004FFF0020434652463946CDE90045029073
:1022D0005046FFF745FF0020434652464146CDE9B0
:1022E000004502904846FFF73BFF00BFBFE72DE9DE
:1022F000F84F05460E4691469B4600244F46C9F1CD
:10230000010AC82D01DCC82E04DDFEA000F0CEFAC3
:10231000BDE8F88FC5E00A98002850D10120F219D5
:1023200091B22A19009090B25A460B9BFFF7C7FE54
:102330000120321991B2EA19009090B25A460B9BD3
:10234000FFF7BDFE0120F21991B22A1B009090B256
:102350005A460B9BFFF7B3FE0120321991B2EA1BDC
:10236000009090B25A460B9BFFF7A9FE0120F21B8A
:1023700091B22A1B009090B25A460B9BFFF79FFE2A
:102380000120321B91B2EA1B009090B25A460B9B7F
:10239000FFF795FE0120F21B91B22A19009090B22E
:1023A0005A460B9BFFF78BFE0120321B91B2EA19B4
:1023B000009090B25A460B9BFFF781FE62E00A98AC
:1023C00001285FD1A0465BE0012006EB080291B234
:1023D0002A19009090B25A460B9BFFF770FE01201D
:1023E000321991B205EB0802009090B25A460B9B4D
:1023F000FFF765FE012006EB080291B22A1B009050
:1024000090B25A460B9BFFF75AFE0120321991B247
:10241000A5EB0802009090B25A460B9BFFF74FFEC7
:102420000120A6EB080291B22A1B009090B25A46F6
:102430000B9BFFF744FE0120321B91B2A5EB080273
:10244000009090B25A460B9BFFF739FE0120A6EB95
:10245000080291B22A19009090B25A460B9BFFF7DE
:102460002EFE0120321B91B205EB0802009090B2C3
:102470005A460B9BFFF723FE08F101001FFA80F874
:10248000B845A1DDBAF1000F03DA6000C01C824438
:1024900005E0E01B4000401D8244781E87B2601CAE
:1024A00084B2A7423FF737AF00BF31E72DE9FC4FB9
:1024B0000746884692461D46DDF82CB09D48808828
:1024C000B84203DB9B48C088404501DABDE8FC8F79
:1024D000A988CA1701EB5272D2100846CB1701EB3C
:1024E0005373DB10A1EBC3030BB1012300E0002306
:1024F0001A44EB885A4392B20092AAF12000009A43
:10250000504301902968019801EB0009002651E031
:10251000002440E0BBF1FF0F14D1E11704EB51712F
:10252000C910A4EBC1028021114199F8002011408B
:1025300029B308EB060291B23A1990B20C9AFFF750
:10254000E6FC1CE0E11704EB5171C910A4EBC102D9
:102550008021114199F80020114041B108EB060299
:1025600091B23A1990B20C9AFFF7D1FC07E008EB50
:10257000060291B23A1990B25A46FFF7C8FCE11729
:1025800004EB5171C910A4EBC101072901D109F174
:102590000109601C84B2A888A042BBDCA888C117CE
:1025A00000EB5171C910A0EBC10109B109F101099A
:1025B000701C86B2E888B042AADC00BF86E72DE92D
:1025C000FC4F0746884615461C46DDE90BAB3E46E8
:1025D000C14620E0A088304456498988884204DDFD
:1025E0003E46E08848441FFA80F9E0884844514953
:1025F000C988884203DDC146A088304486B2CDE94F
:1026000000AB15F8012B234649463046FFF74EFF35
:10261000A088304486B228780028DBD1BDE8FC8F42
:102620002DE9F04FADF5037D06460F461546994658
:10263000DDF834B2DDF830A20024A0464FF48071FA
:1026400043A800F03FF94FF4807103A800F03AF975
:1026500043A8029037488088B04203DB3548C088E1
:10266000B84203DA0DF5037DBDE8F08F0CE00A20D7
:1026700095FBF0F100FB1150303003A90855601CA8
:1026800004B20A2095FBF0F5002DF0D10BE0601E9E
:1026900003A9085C43A901F8080008F101000FFA3A
:1026A00080F8601E04B2002CF1DC4B46CDE900AB93
:1026B00039463046029AFFF782FF00BFD2E72DE984
:1026C000FF4F85B0054690469A46DDE912671AA28B
:1026D00007CA02AC07C4BAF8044098F804000A21FB
:1026E00090FBF1F002A911F8009053464A46CDE95B
:1026F000006728460699FFF7D9FE98F804000A21DA
:1027000020E000004552523A636972636C652063B1
:10271000656E74657220706F696E74206F757420B9
:102720006F662073637265656E2061726561210D4D
:102730000A000000D81300203031323334353637E8
:102740003839000090FBF1F201FB120002A911F8E8
:102750000090291988B253464A46CDE90067069988
:10276000FFF7A4FEA146E11704EB91712A1902EBD1
:10277000A101A34604EBDB7201EB620188B2534670
:102780003A22CDE900670699FFF790FE98F8050018
:102790000A2190FBF1F002A911F800B004EBD97105
:1027A00005EB440202EB610188B253465A46CDE97B
:1027B00000670699FFF77AFE98F805000A2190FB5A
:1027C000F1F201FB120002A911F800B004EBD9717B
:1027D00004EB44022A4402EB610188B253465A4694
:1027E000CDE900670699FFF761FE04EBD97105EBAF
:1027F000840202EB6101A346E21704EB9272A1EBA3
:10280000A20188B253463A22CDE900670699FFF744
:102810004DFE98F806000A2190FBF1F002A911F88C
:10282000009004EB8401294488B253464A46CDE91E
:1028300000670699FFF73AFE98F806000A2190FB18
:10284000F1F201FB120002A911F8009004EB44011F
:1028500005EB410188B253464A46CDE90067069927
:10286000FFF724FE09B0BDE8F08F30B50246002323
:10287000002111E0002009E00A4C648A01FB0403F6
:10288000D45C084D2D68EC54441CA0B2054C648AFD
:102890008442F1DC4C1CA1B2024CA48A8C42E9DCDB
:1028A00030BD0000D8130020704700000FB4044969
:1028B00010B503AA029800F031F810BC5DF814FBC3
:1028C000180000204FF0000200B5134694469646CB
:1028D000203922BFA0E80C50A0E80C50B1F1200133
:1028E000BFF4F7AF090728BFA0E80C5048BF0CC0E1
:1028F0005DF804EB890028BF40F8042B08BF70473F
:1029000048BF20F8022B11F0804F18BF00F8012BB0
:10291000704770477047704770470000074B70B5AD
:102920000D467B4400F011F80446284600F020F8DC
:1029300010B14FF0FF3070BD204670BD55DEFFFF77
:1029400001694A1C02610878704700B58FB0CDE973
:1029500001310021059105497944CDE90310114663
:10296000684600F02EF80FB000BD0000E5FFFFFF45
:10297000007B00F080007047754600F03FF8AE46DF
:1029800005006946534620F00700854618B020B57B
:10299000FDF75EFFBDE820404FF000064FF0000756
:1029A0004FF000084FF0000B21F00701AC46ACE8F7
:1029B000C009ACE8C009ACE8C009ACE8C0098D4664
:1029C00070472DE9F04106460024D6E90170F5680C
:1029D0008046304603E04146B847641C3046A8476D
:1029E0000028F8D12046BDE8F08110B50446AFF3C9
:1029F00000802046BDE81040FDF7BFBB004870478F
:102A0000F0130020FFFFFFFFFFFFFFFFFFFFFFFFAF
:102A1000FFFFFFFFFFFFFFFFFFFFFFFFFFFFFFFFC6
:102A2000FFFFFFFFFFFFFFFFFFFFFFFFFFFFFFFFB6
:102A3000FFDFFFF7FFDFFFF7FFDFFFF7FFDFFFE756
:102A4000FF800007FF000007FF000007FFFFFFE710
:102A5000FFFFFFF7FFFFFFF7FFFFFFF7FFFFFFFF9E
:102A6000FFFFFFFFFFFFFFFFFFFFFFFFFFFFFFFF76
:102A7000FFFFFFFFFFFFFFFFFFFFFFFFFFFFFFFF66
:102A8000FFFFFFFFFFFFFFFFFFFFFFFFFFFFFFFF56
:102A9000FFFFFFFFFFFFFFFFFFFFFFFFFFFFFFFF46
:102AA000FFFFFFFFFFFFFFFFFFFFFFFFFFE1FFC78C
:102AB000FFC1FF87FF99FF27FF3FFE67FF7FFCE70E
:102AC000FF7FF9E7FF7FF3E7FF7FE7E7FF3FCFE710
:102AD000FF1F1FE7FF803FC7FF807E07FFE0FE1F4D
:102AE000FFFFFFFFFFFFFFFFFFFFFFFFFFFFFFFFF6
:102AF000FFFFFFFFFFFFFFFFFFFFFFFFFFFFFFFFE6
:102B0000FFFFFFFFFFFFFFFFFFFFFFFFFFFFFFFFD5
:102B1000FFFFFFFFFFFFFFFFFFFFFFFFFFFFFFFFC5
:102B2000FFFFFFFFFFFFFFFFFFFFFFFFFFC3FE1FD2
:102B3000FF83FE0FFF83FE0FFF3FFFE7FF7FBFF71F
:102B4000FF7FBFF7FF7FBFF7FF3F1FF7FF1E1FE7A6
:102B5000FF804FCFFF80C00FFFE1E01FFFFFF87F36
:102B6000FFFFFFFFFFFFFFFFFFFFFFFFFFFFFFFF75
:102B7000FFFFFFFFFFFFFFFFFFFFFFFFFFFFFFFF65
:102B8000FFFFFFFFFFFFFFFFFFFFFFFFFFFFFFFF55
:102B9000FFFFFFFFFFFFFFFFFFFFFFFFFFFFFFFF45
:102BA000FFFFFFFFFFFFFFFFFFFFFDFFFFFFF1FF45
:102BB000FFFFE1FFFFFF8DFFFFFE1DFFFFFC7DFB21
:102BC000FFF0FDFBFFE3FDFBFF800003FF000003C0
:102BD000FF000003FF000003FFFFFDFBFFFFFDFB05
:102BE000FFFFFDFBFFFFFFFFFFFFFFFFFFFFFFFFFB
:102BF000FFFFFFFFFFFFFFFFFFFFFFFFFFFFFFFFE5
:102C0000FFFFFFFFFFFFFFFFFFFFFFFFFFFFFFFFD4
:102C1000FFFFFFFFFFFFFFFFFFFFFFFFFFFFFFFFC4
:102C2000FFFFFFFFFFFFFFFFFFFFFFFFFFFFFE1F95
:102C3000FFF81E0FFF001E67FF073FF7FF3E7FF7FD
:102C4000FF3EFFF7FF3EFFF7FF3EFFF7FF3E7FE748
:102C5000FF3E3F8FFF3F000FFF3F801FFF3FE07FA2
:102C6000FFFFFFFFFFFFFFFFFFFFFFFFFFFFFFFF74
:102C7000FFFFFFFFFFFFFFFFFFFFFFFFFFFFFFFF64
:102C8000FFFFFFFFFFFFFFFFFFFFFFFFFFFFFFFF54
:102C9000FFFFFFFFFFFFFFFFFFFFFFFFFFFFFFFF44
:102CA000FFFFFFFFFFFFFFFFFFFFFFFFFFFE00FF34
:102CB000FFF0003FFFE0001FFFC38F0FFF9F9FC784
:102CC000FF3F3FE7FF3F7FF7FF7F7FF7FF7F7FF704
:102CD000FF7F3FE7FF0F1FCFFF8F800FFFCFC01F8A
:102CE000FFFFE07FFFFFFFFFFFFFFFFFFFFFFFFF93
:102CF000FFFFFFFFFFFFFFFFFFFFFFFFFFFFFFFFE4
:102D0000FFFFFFFFFFFFFFFFFFFFFFFFFFFFFFFFD3
:102D1000FFFFFFFFFFFFFFFFFFFFFFFFFFFFFFFFC3
:102D2000FFFFFFFFFFFFFFFFFFFFFFFFFFC3FFFFEF
:102D3000FF03FFFFFF0FFFFFFF1FFFFFFF3FFE0728
:102D4000FF3FF007FF3F8007FF3E0FFFFF387FFF89
:102D5000FF21FFFFFF07FFFFFF1FFFFFFF3FFFFFF9
:102D6000FFFFFFFFFFFFFFFFFFFFFFFFFFFFFFFF73
:102D7000FFFFFFFFFFFFFFFFFFFFFFFFFFFFFFFF63
:102D8000FFFFFFFFFFFFFFFFFFFFFFFFFFFFFFFF53
:102D9000FFFFFFFFFFFFFFFFFFFFFFFFFFFFFFFF43
:102DA000FFFFFFFFFFFFFFFFFFFFF83FFFE1F01F07
:102DB000FFC0E00FFF8047CFFF1C0FE7FF3E1FF76C
:102DC000FF7F1FF7FF7F9FF7FF7F8FF7FF3F87E7AB
:102DD000FF1E03CFFF80600FFFC0F01FFFE1F83F31
:102DE000FFFFFFFFFFFFFFFFFFFFFFFFFFFFFFFFF3
:102DF000FFFFFFFFFFFFFFFFFFFFFFFFFFFFFFFFE3
:102E0000FFFFFFFFFFFFFFFFFFFFFFFFFFFFFFFFD2
:102E1000FFFFFFFFFFFFFFFFFFFFFFFFFFFFFFFFC2
:102E2000FFFFFFFFFFFFFFFFFFF03FFFFFC01F8F10
:102E3000FF800F8FFF8FC787FF3FE7F7FF7FF7F711
:102E4000FF7FF7F7FF7FF7E7FF7FE7C7FF3FCF8FF2
:102E5000FF8F8C1FFFC0003FFFE0007FFFF803FFE4
:102E6000FFFFFFFFFFFFFFFFFFFFFFFFFFFFFFFF72
:102E7000FFFFFFFFFFFFFFFFFFFFFFFFFFFFFFFF62
:102E8000FFFFFFFFFFFFFFFFFFFFFFFFFFFFFFFF52
:102E9000FFFFFFFFFFFFFFE003FFFFFFFFFFFC005F
:102EA000001FFFFFFFFFE0000003FFFFFFFF8000A8
:102EB0000000FFFFFFFE000000003FFFFFFC0000DE
:102EC00000001FFFFFF8000000000FFFFFF003FFEE
:102ED000FFE007FFFFE03FFFFFFE03FFFFE0FFFF14
:102EE000FFFF83FFFFC1FFFFFFFFC1FFFFC7FFFF22
:102EF000FFFFF1FFFFC7FFFFFFFFF1FFFFCFFFFF66
:102F0000FFFFF9FFFFCFFFFFFFFFF9FFFFC7FFFF45
:102F1000FFFFF1FFFFC7FFFFFFFFF1FFFFC3FFFF51
:102F2000FFFFE1FFFFE0FFFFFFFF83FFFFE03FFF49
:102F3000FFFE03FFFFF003FFFFC007FFFFF80000E5
:102F400000000FFFFFFC000000001FFFFFFE00005D
:102F500000003FFFFFFF80000000FFFFFFFFE000D9
:102F60000003FFFFFFFFFE00003FFFFFFFFFFFFF2B
:102F7000FFFFFFFFFFFFFFFFFFFFFFFFFFFFFFFF61
:102F8000FFFFFFFFFFFFFFFFFFFFFFFFFFFFFFFF51
:102F9000FFFFFFFFFFFFFFFFFFFFFFFFFFFFFFFF41
:102FA000FFFFFFFFFFFFFFFFFFFFFFFFFFFFFFFF31
:102FB000FFFFFFFFFFFCFFFFFFFFF3FFFFFCFFFF33
:102FC000FFFFF3FFFFFCFFFFFFFFF3FFFFFCFFFF2F
:102FD000FFFFF3FFFFFCFFFFFFFFF3FFFFFCFFFF1F
:102FE000FFFFF3FFFFF8FFFFFFFFE3FFFFF8000025
:102FF000000003FFFFF00000000003FFFFF00000EF
:10300000000003FFFFC00000000003FFFFC000003E
:10301000000003FFFFC00000000003FFFFFFFFFFF1
:10302000FFFFC3FFFFFFFFFFFFFFE3FFFFFFFFFF08
:10303000FFFFF3FFFFFFFFFFFFFFF3FFFFFFFFFFB8
:10304000FFFFF3FFFFFFFFFFFFFFF3FFFFFFFFFFA8
:10305000FFFFF3FFFFFFFFFFFFFFFFFFFFFFFFFF8C
:10306000FFFFFFFFFFFFFFFFFFFFFFFFFFFFFFFF70
:10307000FFFFFFFFFFFFFFFFFFFFFFFFFFFFFFFF60
:10308000FFFFFFFFFFFFFFFFFFFFFFFFFFFFFFFF50
:10309000FFFFFFFFFFFFFFFFFFFFE3FFFFFFC1FF9A
:1030A000FFFF83FFFFFF00FFFFFE03FFFFFC007F2A
:1030B000FFFC03FFFFF8007FFFF803FFFFF0007F36
:1030C000FFF043FFFFF0007FFFE1C3FFFFE1F07F70
:1030D000FF83C3FFFFE3FFFFFF07C3FFFFE7FFFF20
:1030E000FE0FC3FFFFC7FFFFFC1FC3FFFFCFFFFFA4
:1030F000F83FC3FFFFCFFFFFF07FC3FFFFCFFFFF0E
:10310000E0FFC3FFFFCFFFFFC1FFC3FFFFCFFFFF04
:1031100083FFC3FFFFC7FFFF07FFC3FFFFC7FFFC1E
:103120000FFFC3FFFFC3FFF01FFFC3FFFFE0FFC0A0
:103130003FFFC3FFFFE000007FFF83FFFFF00000C1
:10314000FFFF83FFFFF00001FFFE03FFFFF8000712
:10315000FFF003FFFFFC000FFFE003FFFFFF007F16
:10316000FFE00FFFFFFFFFFFFFE7FFFFFFFFFFFF96
:10317000FFFFFFFFFFFFFFFFFFFFFFFFFFFFFFFF5F
:10318000FFFFFFFFFFFFFFFFFFFFFFFFFFFFFFFF4F
:10319000FFFFFFFFFFFFFFFFFFFFFFFFFFFFFFFF3F
:1031A000FFF87FFFFFFE07FFFFF01FFFFFFC03FF9D
:1031B000FFE00FFFFFF803FFFFE007FFFFF003FF53
:1031C000FFE007FFFFE003FFFFE003FFFFE3C3FFB4
:1031D000FFF0E3FFFFE7FFFFFFFFF1FFFFC7FFFC8B
:1031E000FFFFF1FFFFCFFFFCFFFFF9FFFFCFFFFC69
:1031F000FFFFF9FFFFCFFFFCFFFFF9FFFFCFFFFC51
:10320000FFFFF9FFFFCFFFF87FFFF9FFFFC7FFF8D0
:103210007FFFF1FFFFC3FFF07FFFF1FFFFC1FFE280
:103220003FFFE1FFFFE07F821FFFC3FFFFE00003DE
:103230000FFF83FFFFF0000701FC07FFFFF8000FFF
:10324000800007FFFFFC001F80000FFFFFFE003F14
:10325000C0001FFFFFFF80FFF0003FFFFFFFFFFFE9
:10326000F800FFFFFFFFFFFFFF07FFFFFFFFFFFF6C
:10327000FFFFFFFFFFFFFFFFFFFFFFFFFFFFFFFF5E
:10328000FFFFFFFFFFFFFFFFFFFFFFFFFFFFFFFF4E
:10329000FF7FFFFFFFFFFFFFFC7FFFFFFFFFFFFF41
:1032A000F87FFFFFFFFFFFFFE07FFFFFFFFFFFFF54
:1032B000807FFFFFFFFFFFFF027FFFFFFFFFFFFC9D
:1032C0000E7FFFFFFFFFFFF83E7FFFFFFFFFFFE0E6
:1032D0007E7FFFFFFFFFFF81FE7FFFFFFFFFFF03FA
:1032E000FE7FFFFFFFFFFC0FFE7FF3FFFFFFF83FB6
:1032F000FE7FF3FFFFFFE07FFE7FF3FFFFFFC1FFD5
:10330000FE7FF3FFFFFF03FFFE7FF3FFFFFC0FFFD6
:10331000FE7FF3FFFFF80000000003FFFFE0000066
:10332000000003FFFFE00000000003FFFFE00000DB
:10333000000003FFFFE00000000003FFFFE00000CB
:10334000000003FFFFFFFFFFFE7FF3FFFFFFFFFF14
:10335000FE7FF3FFFFFFFFFFFE7FF3FFFFFFFFFF97
:10336000FE7FF3FFFFFFFFFFFE7FF3FFFFFFFFFF87
:10337000FE7FF3FFFFFFFFFFFE7FFFFFFFFFFFFF6B
:10338000FFFFFFFFFFFFFFFFFFFFFFFFFFFFFFFF4D
:10339000FFFFFFFFFFFFFFFFFFFFFFFFFFFFFFFF3D
:1033A000FFF07FFFFFFFFFFFFFE03FFFFFFFF000A9
:1033B0001FC01FFFFFE000001FC00FFFFFE0000065
:1033C0001FC007FFFFE0000C1FC003FFFFE1FFF875
:1033D0007FE1E3FFFFE1FFF0FFFFF3FFFFE1FFF11C
:1033E000FFFFF1FFFFE1FFF1FFFFF1FFFFE1FFE36F
:1033F000FFFFF9FFFFE1FFE3FFFFF9FFFFE1FFE35D
:10340000FFFFF9FFFFE1FFE3FFFFF9FFFFE1FFE34C
:10341000FFFFF9FFFFE1FFE1FFFFF1FFFFE1FFE148
:10342000FFFFE1FFFFE1FFE0FFFFC3FFFFE1FFF070
:103430003FFF83FFFFE1FFF00FFC03FFFFE1FFF819
:10344000000007FFFFE1FFF800000FFFFFE1FFFCB6
:1034500000001FFFFFE1FFFF00003FFFFFE3FFFF52
:103460008000FFFFFFFFFFFFF80FFFFFFFFFFFFFE1
:10347000FFFFFFFFFFFFFFFFFFFFFFFFFFFFFFFF5C
:10348000FFFFFFFFFFFFFFFFFFFFFFFFFFFFFFFF4C
:10349000FFFFFFFFFFFFFFF801FFFFFFFFFFFE0041
:1034A0000007FFFFFFFFF0000001FFFFFFFFC0006C
:1034B00000007FFFFFFF000000001FFFFFFE000075
:1034C00000000FFFFFFC0000000007FFFFF807F8F7
:1034D0001FF807FFFFF03FF07FFF03FFFFF0FFE063
:1034E000FFFF83FFFFE1FFE1FFFFE1FFFFE3FFE3FA
:1034F000FFFFF1FFFFC7FFC3FFFFF1FFFFC7FFC7DC
:10350000FFFFF9FFFFCFFFC7FFFFF9FFFFCFFFC7A7
:10351000FFFFF9FFFFCFFFC7FFFFF9FFFFCFFFC39B
:10352000FFFFF1FFFFC7FFC1FFFFF1FFFFC01FC09B
:10353000FFFFE3FFFFC01FE07FFF83FFFFE01FE00F
:103540000FF807FFFFF01FF000000FFFFFF01FF064
:1035500000000FFFFFFC3FFC00003FFFFFFFFFFEEE
:1035600000007FFFFFFFFFFFC001FFFFFFFFFFFF26
:10357000FFFFFFFFFFFFFFFFFFFFFFFFFFFFFFFF5B
:10358000FFFFFFFFFFFFFFFFFFFFFFFFFFFFFFFF4B
:10359000FFFFFFFFFFFFFFFFFFFFFFFFFFFFF3FF47
:1035A000FFFFFFFFFFFC03FFFFFFFFFFFFE003FF45
:1035B000FFFFFFFFFFE007FFFFFFFFFFFFE03FFF11
:1035C000FFFFFFFFFFE07FFFFFFFFFFFFFE0FFFFC9
:1035D000FFFFFFFFFFE1FFFFFFFFFFFFFFE1FFFF37
:1035E000FFE003FFFFE1FFFFFE0001FFFFE1FFFF40
:1035F000F00001FFFFE1FFFFC00001FFFFE1FFFF5F
:10360000000001FFFFE1FFFC000001FFFFE1FFE020
:10361000000003FFFFE1FF800FFFFFFFFFE1FE005F
:103620007FFFFFFFFFE1FC03FFFFFFFFFFE1F01F54
:10363000FFFFFFFFFFE1C07FFFFFFFFFFFE101FF93
:10364000FFFFFFFFFFE007FFFFFFFFFFFFE01FFFA0
:10365000FFFFFFFFFFE07FFFFFFFFFFFFFE1FFFF37
:10366000FFFFFFFFFFE3FFFFFFFFFFFFFFFFFFFF86
:10367000FFFFFFFFFFFFFFFFFFFFFFFFFFFFFFFF5A
:10368000FFFFFFFFFFFFFFFFFFFFFFFFFFFFFFFF4A
:10369000FFFFFFFFFFFFFFFFFF01FFFFFFFF80FFB7
:1036A000F8007FFFFFFE003FF0003FFFFFFC001F20
:1036B000E0001FFFFFF8000FC0000FFFFFF0000742
:1036C00080FE07FFFFE07C0307FF83FFFFE1FF01B0
:1036D0000FFFC3FFFFE3FF803FFFE3FFFFC7FFC014
:1036E0007FFFF1FFFFC7FFE07FFFF1FFFFCFFFE0AC
:1036F0007FFFF9FFFFCFFFF07FFFF9FFFFCFFFF85C
:103700003FFFF9FFFFCFFFF83FFFF9FFFFCFFFF8C3
:103710001FFFF9FFFFC7FFFC0FFFF1FFFFC7FFF817
:1037200007FFF1FFFFC3FFF007FFE3FFFFE1FFE14A
:1037300001FFE3FFFFE0FF8300FF83FFFFF00007CF
:10374000803E07FFFFF00007C00007FFFFF8000FF3
:10375000E0000FFFFFFC003FF0001FFFFFFF007FB6
:10376000FC007FFFFFFFFFFFFF01FFFFFFFFFFFFE9
:10377000FFFFFFFFFFFFFFFFFFFFFFFFFFFFFFFF59
:10378000FFFFFFFFFFFFFFFFFFFFFFFFFFFFFFFF49
:10379000FFFFFFFFFFFFF003FFFFFFFFFFFF8000C2
:1037A0007FFFFFFFFFFE00003FFF1FFFFFFC000049
:1037B0001FFC0FFFFFF800000FFC07FFFFF00000E9
:1037C00007FC03FFFFE03FF807FC03FFFFE0FFFFFC
:1037D00003FC01FFFFE3FFFF83FE01FFFFC7FFFFC5
:1037E000C3FFF1FFFFC7FFFFC3FFF9FFFFCFFFFFDD
:1037F000E3FFF9FFFFCFFFFFE3FFF9FFFFCFFFFF7D
:10380000E3FFF1FFFFCFFFFFC3FFF1FFFFCFFFFF9C
:10381000C3FFE3FFFFC7FFFF87FFC3FFFFC3FFFF38
:1038200007FF03FFFFE1FFFE0FFC07FFFFE07FFC48
:103830001FE00FFFFFF00FF038001FFFFFF8000040
:1038400000003FFFFFFC000000007FFFFFFE0000C4
:103850000001FFFFFFFF00000007FFFFFFFFE00088
:10386000001FFFFFFFFFFC0001FFFFFFFFFFFFFF47
:10387000FFFFFFFFFFFFFFFFFFFFFFFFFFFFFFFF58
:10388000FFFFFFFFFFFFFFFFFFFFFFFFFFFFFFFF48
:10389000FFFFFFFFFFFFFFFFFFFFFFFFFFFFFFFF38
:1038A000FFFFFFFFFFFFFFFFFFFFFFFFFFFFFFFF28
:1038B000FFFFFFFFFFFFFFFFFFFFFFFFFFFFFFFF18
:1038C000FFFFFFFFFFFFFFFFFFFFFFFFFFFFFFFF08
:1038D000FFFFFFFFFFFFFFFFFFFFFFFFFFFFFFC334
:1038E000FFFF87FFFFFFFF81FFFF03FFFFFFFF00D9
:1038F000FFFE01FFFFFFFF00FFFE01FFFFFFFF00D4
:10390000FFFE01FFFFFFFF00FFFE01FFFFFFFF00C3
:10391000FFFE01FFFFFFFF81FFFF03FFFFFFFFC36C
:10392000FFFF87FFFFFFFFFFFFFFFFFFFFFFFFFF1F
:10393000FFFFFFFFFFFFFFFFFFFFFFFFFFFFFFFF97
:10394000FFFFFFFFFFFFFFFFFFFFFFFFFFFFFFFF87
:10395000FFFFFFFFFFFFFFFFFFFFFFFFFFFFFFFF77
:10396000FFFFFFFFFFFFFFFFFFFFFFFFFFFFFFFF67
:10397000FFFFFFFFFFFFFFFFFFFFFFFFFFFFFFFF57
:10398000FFFFFFFFFFFFFFFFFFFFFFFFFFFFFFFF47
:10399000FFFFFFFFFFFFFFFFFFFFFFFFFFFFFFFF37
:1039A000FFFFFFFFFFFFFFFFFFFFFFFFFFFFFFFF27
:1039B000FFFFFFFFFFFFFFFFFFFFFFFFFFFFFFFF17
:1039C000FFFFFFFFFFFFFFFFFFFFFFFFFFFFFFFF07
:1039D000FFFFFFFFFFFFFFFFFFFFFFFFFFFFFFFFF7
:1039E000FFFFFFFFFFFFFFFFFFFFFFFFFFFFFFFFE7
:1039F000FFFFFFFFFFFFFFFFFFFFFFFFFFFFFFFFD7
:103A0000FFFFFFFFFFFFFFFFFFFFFFFFFFFFFFFFC6
:103A1000FFFFFFFFFFFFFFFFFFFFFFFFFFFFFFFFB6
:103A2000FFFFFFFFFFFFFFFFFFFFFFFFFFFFFFFFA6
:103A3000FFFFFFFFFFFFFFFFFFFFFFFFFFFFFFFF96
:103A4000FFFFFFFFFFFFFFFFFFFFFFFFFFFFFFFF86
:103A5000FFFFFFFFFFFFFFFFFFFFFFFFFFFFFFFF76
:103A6000FFFFFFFFFFFFFFFFFFFFFFFFFFFFFFFF66
:103A7000FFFFFFFFFFFFFFFFFFFFFFFFFFFFFFFF56
:103A8000FFFFFFFF0000000000000000000000003A
:103A90000000000000000000000000000000000026
:103AA0000000000000000000000000000000000016
:103AB0000000000000000000000000000000000006
:103AC00000000000000000000000000000000000F6
:103AD00000000000000000000000000000000000E6
:103AE00000000000000000000000000000000000D6
:103AF00000000000000000000000000000000000C6
:103B000000000000000000000000000000000000B5
:103B100000000000000000000000000000000000A5
:103B20000000000000000000000000000000000095
:103B30000000000000000000000000000000000085
:103B40000000000000000000000000000000000075
:103B50000200000000000000000000000000000063
:103B60000000000000000001F807E00000000180F4
:103B7000000000001800000000030000000000002A
:103B80000FFE07F800000003C0000000003C00002A
:103B9000000007C000000000001FFF07FC0000003D
:103BA0000FF000000000FF000000001FE000000018
:103BB00000003FFF87FE0000001FF800000003FF29
:103BC000800000003FF800000000003FFFC7FE003B
:103BD00000007FFE00000007FFE0000000FFFC0087
:103BE000000000007FFFC1FF000001FFFF80000018
:103BF0001FFFF8000001FFFF00000000007E1FE033
:103C00007F000003FFFFC000003FFFFC000007FF34
:103C1000FF80000000007E1FE03F00000FFFFFF06C
:103C20000000FFFFFF00000FFFFFE0000000007E2C
:103C30001FF03F00000FFFFFF00000FFFFFF00003C
:103C40000FFFFFE0000000007E0FF03F000003FFC9
:103C5000FFC000003FFFFC000007FFFF80000000E6
:103C6000007F8FF87F000001FFFF8000001FFFF83A
:103C7000000001FFFF00000000003FC7FFFE000042
:103C8000007FFE00000007FFE0000000FFFC0000D6
:103C90000000003FC7FFFE0000003FFC00000003E3
:103CA000FF800000003FF800000000001FC3FFFC81
:103CB0000000000FF000000000FF000000001FE007
:103CC00000000000000FC1FFF800000003C000006A
:103CD00000007C0000000007C0000000000007C0DA
:103CE000FFF000000001800000000018000000004C
:103CF0000300000000000000003FC00000000000C2
:103D000000000000000000000000000000000000B3
:103D100000000000000000000000000000000000A3
:103D20000000000000000000000000000000000093
:103D30000000000000000000000000000000000083
:103D40000000000000000000000000000000000073
:103D500000000000000000000000003FFFFFFE0028
:103D60000000000000000000000000000000000053
:103D7000000000003FFFFFFE000000000000000008
:103D8000000000000000000000000000003FFFFFF6
:103D9000FE00000000000000000000000000000025
:103DA0000000000000003FFFFFFE000000000000D8
:103DB0000000000000000000000000000000003FC4
:103DC000FFFFFE00000000000000000000000000F7
:103DD00000000000000000003FFFFFFE00000000A8
:103DE00000000000000000000000000000000000D3
:103DF000003F0FE07E000000000000000000000017
:103E0000000000000000000000003F0FE07E000006
:103E100000000000000000000000000000000000A2
:103E20000000003F0FE07E000000000000000000E6
:103E30000000000000000000000000003F0FE07ED6
:103E40000000000000000000000000000000000072
:103E500000000000003F0FE07E00000000000000B6
:103E600000000000000000000000000000003F0F04
:103E7000E07E0000000000000000000006000000DE
:103E8000000000000000003F0FE07E00000018006E
:103E900060000006001E000001FFFFC000000000DF
:103EA0003F0FE07E00000030006000000E003E008A
:103EB0000001FFFFC0000000003F0FE07E00000097
:103EC00060006000000C00E600000180C0C000003F
:103ED00000003F00007E000000FFFFE000000C0338
:103EE000C600000180C0C00000000000000000000B
:103EF00000007FFFE000000F1F06000001C0C0C0EF
:103F00000000000000000000000000000060000051
:103F100007FC06000000E3E0C00000000000000015
:103F200000000000000060000000E0060000007FCC
:103F30007F80000000000000000000000000000082
:103F40000000000000000000003F00000000003FF3
:103F5000FFFFFE0000000000000000000000000065
:103F600000000000000000003FFFFFFE0000000016
:103F70000000000000FFF000000000000000000052
:103F8000003FFFFFFE0000000000E0000003FFFC18
:103F9000000000000000000000003FFFFFFE0000E6
:103FA000000000E0000006000E000003FFFFC0005C
:103FB0000000003FFFFFFE00000000000000000CBA
:103FC0000006000000000000000000003FFFFFFEB0
:103FD00000000000000000000C00060000000000CF
:103FE00000000000003F0FE07E0000000000C00065
:103FF000000E000E000000000000000000003F0F57
:10400000E07E000000FF80E0000007803C00000030
:10401000030F80000000003F0FE07E000000E18001
:1040200060000003FFF0000000061CC0000000005C
:104030003F0FE07E000000C1806000000000000033
:1040400000000618C0000000003F0FE07E000000E6
:10405000C1806000000000000000000610C00000E9
:1040600000003F0FE07E000000C0C0E0000001FF44
:10407000F00000000610C0000000003F0FE07E00CE
:104080000000C0FFC0000007F1FC00000007FFC0F7
:10409000000000003F0FE07E000000003F00000035
:1040A00006000E00000001FFC0000000003F0FE00E
:1040B0007E00000000000000000C00060000000070
:1040C0000000000000003F00007E00000000000033
:1040D00000000C00060000000000000000000000CE
:1040E000000000000000003E0000000E000E000076
:1040F0000000FE00000000000000000000000000C2
:10410000FE00000007C03C00000003FF800000002C
:104110000000000000000000078E00000003FFF018
:104120000000000701C0000000003FFFFFFE00008C
:10413000001E0E0000000000000000000600C0008D
:104140000000003FFFFFFE000000700E00000000B6
:1041500000000000000600C0000000003FFFFFFE5E
:10416000000000FFFFE0000000000000000006006B
:10417000C0000000003FFFFFFE000000FFFFE00066
:10418000000E6000000000030180000000003FFFFF
:10419000FFFE000000000E00000002C00000000052
:1041A000000000000000003FFFFFFE0000000004D0
:1041B0000000003FF80000000000000000000000C8
:1041C0001FFF0000000000000000000033D80000C6
:1041D0000003FFFFC00000000007FFC00000000058
:1041E000400000000006C000000001FFFF8000004A
:1041F000000001FFF800000000E7FFE000000C6095
:104200000000000000780000000000003FFE0000F9
:104210000000000000000000000000000001DE00BF
:1042200000000000000FFF80000000000000000000
:10423000000000000000038780000000000003FF72
:10424000E000000000000000000000000000000688
:1042500001C00000000000007FFC00000003FFE040
:10426000000003000E000000040040000000003FBA
:10427000FFFFFE00000003FFE0000006001E00003C
:1042800000000000000000003FFFFFFE00000001F2
:10429000800000000C00760000000000000000001C
:1042A000003FFFFFFE00000003000000000C00E6DE
:1042B000000000007F80000000003FFFFFFE0000C4
:1042C0000006000000000E0786000000FCE3C000AE
:1042D0000000003FFFFFFE00000007000000000795
:1042E000FE060000018FC0C0000000003FFFFFFE7F
:1042F00000000003FFE0000003F80600000303C015
:10430000C0000000000000000000000000FFE0000E
:104310000000000600000307F0C0000000000000DD
:10432000000000000000000000000000000000038A
:104330008E38C000000000000000000000000000F7
:10434000000000000000000001FC1F8000000000D1
:104350000003E000000000007F00000001FFF80003
:104360000000F00F0000000000007FFF00000000D0
:1043700001FFC0000007803C00000000FF8000003B
:10438000000003FFFFE00000000300E000000E005B
:104390000E00000001F1C00000000007FFFFF00068
:1043A000000007006000000C00060000000000C0D4
:1043B000000000001FFFFFFC00000006006000007E
:1043C0000C0006000000000000000000001FFFFFBE
:1043D000FC0000000300E000000E000E00000000E2
:1043E0000000000000003FFC1FFE0000000301C0B1
:1043F000000007FFFC000001FC0000000000003F7F
:10440000C001FE000000000000000001FFE000000D
:10441000003FE000000000007F8000FF000000007F
:104420000000000000000000000001FF000000008C
:10443000007F00007F000001FFFFE00000001F8000
:104440000000000007C0000000007F00007F0000A7
:1044500000FFFFC0000003FFF80000000007C000DD
:104460000000007F03F87F00000003000000000749
:10447000803C00000001FE00000000007F03F87F88
:1044800000000003000000000E000E0000007FC0CE
:1044900000000000007F83F8FF000000070000001C
:1044A000000C0006000001F80000000000003FE3DF
:1044B000F8FE00000003800000000C000600000071
:1044C000FF8000000000003FC3FFFE00000001FF6E
:1044D000E000000E000E00000007FC0000000000DD
:1044E0001FC3FFFC000000000000000007FFF800F1
:1044F0000000001FC0000000000FC3FFFC00000010
:10450000000000000000FFE00000000003C0000009
:10451000000007C3FFF800000000000000000000DA
:1045200000000000007F80000000000083FFF0001A
:10453000000000000000000000000000000FF0007C
:10454000000000000000000000000000000000006B
:10455000000000000000FE0000000000000000005D
:10456000000000000000000000000000000001C08A
:10457000000000000000000000000000000000003B
:10458000000000000000000000000000000000002B
:10459000000000000000000000000000000000001B
:1045A00000000000000000003FFFFFFE000000FFD1
:1045B000FFE00000000000000003FFFFC00000005B
:1045C000003FFFFFFE000000C0C0600000007FFF52
:1045D000F00003FFFFC0000000003FFFFFFE0000EF
:1045E00000C0C0600000001C1C00000003000000B0
:1045F0000000003FFFFFFE000000C0C060000000A0
:10460000300C000000060000000000003FFFFFFE2D
:10461000000000C0C060000000700600000006003E
:1046200000000000003FFFFFFE000000C0C060006F
:1046300000007006000000070000000000003F03BB
:10464000E000000000400060000000300E000000AC
:1046500003FFC0000000003F03F000000000000066
:10466000000000003FFC000000000000000000000F
:104670003F07F80000000000100000000007E00005
:104680000000000000000000003F07FF00000000E5
:104690000018000000000000000000000000000002
:1046A00000003F87FFE0000000001800000000004D
:1046B00000000000C7FFC0000000003FFFFFFC003B
:1046C000000000180000000E7FFE000001C7FFC0C0
:1046D000000000003FFFFFFE00000000100000008F
:1046E0000C3FFE000000000000000000003FFFDF64
:1046F000FE000000000000000000000000000004B8
:104700000000000000001FFF8FFE000000000000FE
:104710000000000000000000060000000000000F84
:10472000FF03FE000000FFFFE00000006006000045
:10473000007FFF800000000003FC00FE000000FF7F
:10474000FFE0000000781E0000007FFFC0000000B6
:10475000000000001E000000C030000000001FF03C
:104760000000000600C00000000000000002000081
:1047700000C0300000000003C00000000600C000C0
:1047800000000000000000000000C0300000000039
:1047900007F0000000000000000000000000000022
:1047A0000000006060000000003E3C0000000000CF
:1047B00000000000003FFFFFFE0000007FE000005F
:1047C0000000700E00000001FF00000000003FFF2D
:1047D000FFFE0000001F800000000000020000003B
:1047E0000733C0000000003FFFFFFE000000000094
:1047F0000000000000000000000630C000000000C3
:104800003FFFFFFE0000000000000000000FF0006E
:1048100000000430C0000000003FFFFFFE00000069
:104820000107C00000001FFC0000000630C00000AF
:1048300000003FFFFFFE000000030EE0000000311B
:104840008E0000000730C0000000003F0FE0FE00B7
:104850000000060C60000000618600000003F1808B
:10486000000000003F0FE07E00000006186000001E
:10487000006186000000006000000000003F0FE0C3
:104880007E00000007186000000031860000000074
:104890000000000000003F0FE07E00000003FFC0AA
:1048A0000000003F8C000000000000000000003FFE
:1048B0000FE07E00000001FFE00000000F08000094
:1048C00000000000000000003F0FE07E000000003C
:1048D00000000000000000000000000000000000D8
:1048E000003F0FE07E00000000000000000000001C
:1048F000000000000000000000003F0FE07E00000C
:104900000000000000000FFFFC000000000000009D
:104910000000003F0FE07E00000007FFFF00001FC7
:10492000FFFE000000000000000000003F0FE07EDE
:1049300000000001FFFE0000000000000000000079
:1049400000000000003F00007E0000000300C000E7
:104950000000000000000000000000000000000057
:1049600000000000000300600000000C0C000000CC
:10497000000000000000000000000E000000070022
:10498000600000003F060000000000000000000082
:10499000000000FE0000000300E00000006386004D
:1049A00000000000000000000000001FFE000000EA
:1049B00003FFC0000000618600000000000000004E
:1049C00000000001FFFE00000000FF00000000608A
:1049D000CE00000000000000000000001FFFFE00ED
:1049E0000000000000000000307C0000000000001B
:1049F0000000000001FFFFFE0000000000000000BA
:104A0000000000000000000000000000001FFFFF89
:104A1000E000000000FF8000000000000000000037
:104A20000000000000003FFFFFE000000003F9C0AD
:104A30000000000000000000000000000000003F37
:104A4000FF9FE0000000031860000000000000006D
:104A500000000000000000003FF01FE00000000622
:104A600018600000000000000000000000000000CE
:104A7000003FE01FE000000006186000000000009A
:104A8000000000000000000000003FFF1FE00000E9
:104A9000000318600000000000000000000000009B
:104AA0000000003FFFFFE000000001F8C000000030
:104AB0000000000000000000000000003FFFFFE0D9
:104AC0000000000070000000000000000000000076
:104AD000000000000007FFFFFE00000000000000D3
:104AE0000000000000000000000000000000007F47
:104AF000FFFE0000000000000000000000000000B9
:104B0000000000000000000003FFFE00000003FFA3
:104B1000E0000000000000000000000000000000B5
:104B200000003FFE00000003FFE000000000000066
:104B3000000000000000000000000003FE00000074
:104B400003800000000000000000000000000000E2
:104B500000000000003E0000000700000000000010
:104B60000000000000000000000000000000020043
:104B7000000007000000000000000000000000002E
:104B80000000000000000000000000000000000025
:104B9000000000000000000000000000003F0000D6
:104BA0000000000000000000000000000000000005
:104BB0000000000000003F000000000000000000B6
:104BC0000000000000000000000000000000003FA6
:104BD00000000000000000000000000000000000D5
:104BE00000000000000000003F0000000000000086
:104BF00000000000000000000000000000000000B5
:104C0000003F000000000000000000000000000065
:104C1000000000000000000000003F000000000055
:104C20000000000000000000000000000000000084
:104C30000000003FFFFFFE00000000000000000039
:104C40000000000000000000000000003FFFFFFE29
:104C50000000000000000000000000000000000054
:104C600000000000003FFFFFFE0000000000000009
:104C700000000000000000000000000000003FFFF6
:104C8000FFFE000000000000000000000000000027
:104C9000000000000000003FFFFFFE0000000000D9
:104CA0000000000000000000000000000000000004
:104CB0003FFFFFFE000000000000000000000000B9
:104CC0000000000000000000003F000000000000A5
:104CD00000000000000000000000000000000000D4
:104CE00000003F0000000000000000000000000085
:104CF00000000000000000000000003F0000000075
:104D000000000000000000000000000000000000A3
:104D1000000000003F000000000000000000000054
:104D2000000000000000000000000000003F000044
:104D30000000000000000000000000000000000073
:104D40000000000000003F00000000000000000024
:104D50000000000000000000000000000000000053
:104D60000000000000000000000000000000000043
:104D70000000000000000000000000000000000033
:104D80000000000000000000000000000000000023
:104D90000000000000000000000000000000000013
:104DA0000000000000000000000000000000000003
:104DB00000000000000000000000000000000000F3
:104DC00000000000000000000000000000000000E3
:104DD00000000000000000000000000000000000D3
:104DE00000000000000000000000000000000000C3
:104DF00000000000000000000000000000000000B3
:104E0000000000000000000000000000FFFFFFFFA6
:104E1000FFFFFFFFFFFFFFFFFFFFFFFFFFFFFFFFA2
:104E2000FFFFFFFFFFFFFFFFFFFFFFFFFFFFFFFF92
:104E3000FFFFFFFFFFFFFFFFFFFFFFFFFFFFFFFF82
:104E4000FFFFFFFFFFFFFFFFFFFFFFFFFFFFFFFF72
:104E5000FFFFFFFFFFFFFFFFFFFFFFFFFFFFFFFF62
:104E6000FFFFFFFFFFFFFFFFFFFFFFFFFFFFFFFF52
:104E7000FFFFFFFFFFFFFFFFFFFFFFFFFFFFFFFF42
:104E8000FFFFFFFFFFFFFFFFFFFFFFFC7FFF80FF34
:104E9000FFFFFFFFFFFFFFFFFFFFFFFFFFFFFFFF22
:104EA000FFFFFFC01F8FFF800FFFFFFFFFFFFFFF10
:104EB000FFFFF80FFFFFFFFFFFFFFFFE0003C3FF31
:104EC0008003FFFFFFFC0003FFFFFFE003FFFFFF86
:104ED000E0001FFFF80001E1FF8001FFFFFFFC0081
:104EE00003FFFFFF83E1FFFFFFE0001FFFF0000073
:104EF00070FF80007FFFFFFCF8FFFFFFFF8FF8FFD0
:104F0000FFFFFFFFFFFFE00000387FC0007FFFFFD3
:104F1000FCF8FFFFFFFF1FFCFFFFFFFFFFFFFFE0AD
:104F200000FC3C7FFC003FFFFFFCF87FFFFFFF3FE2
:104F3000FCFFFFFFFFFFFFFFC003FE1C3FFE001F43
:104F4000FFFFFC701FFFFFFF3FFCFFFFFFFE001F86
:104F5000FFC007FF0E3FFF001FFFFFFC0307FFFF1F
:104F6000FF3FFCFFFFFFFE001FFFC007FF0E1FFFFC
:104F7000001FFFFFFF07C3FFFFFF1FFCFFFFFFFF37
:104F80003FFFFFC007FF071FFF801FFFFFFFFFF36B
:104F9000FFFFFF9FFDFFFFFFFE7FFFFFC007FF87B3
:104FA0008FFF801FFFFFFFFFFFFFFFFFFFFFFFFFE0
:104FB000FFFE7FFFFFC003FF838FFF001FFFFFFF88
:104FC000FC1FFFFFFFFF07FFFFFFFE3FFFFFE001AA
:104FD000FFC1E3FE003FFFFFFFF007FFFFFFFC0103
:104FE000FFFFFFFF001FFFE0007FC0F8FC003FFF56
:104FF000FFFFE243FFFFFFF8F0FFFFFFFF801FFF0F
:10500000F0007FE03FF8007FFFFFFFCE73FFFFFF60
:10501000F1FCFFFFFFFFFFFFFFF8007FF0078000BC
:10502000FFFFFFFFCE73FFFFFFF3FCFFFFFFFFFF5C
:10503000FFFFFE007FF8000003FFFFFFFFCE73FFBE
:10504000FFFFF3FCFFFFFFFE7FFFFFFF807FFC0001
:10505000000FFFFFFFFFE073FFFFFFF1FCFFFFFF0B
:10506000F0003FFFFFF87FFF80003FFFFFFFFFF0F2
:1050700077FFFFFFF800FFFFFFF0001FFFFFFFFFBC
:10508000FFFE07FFFFFFFFFFFFFFFFFFFFFC03FF28
:10509000FFFFFE7F9FFFFFFFFFFFFFFFFFFFFFFF01
:1050A000FFFFFFFFFFFFFFFFFFFFFFFE7F9FFFFFF1
:1050B000FFFFFFFFFFFFFFFFFFFFE0F3FFFFFFFF2B
:1050C000FFFFFFFFFFFFFFFFFFFFFFFFFFFFFFFFF0
:1050D000FFFFFFC073FFFFFFFFFFFFFFFFFFF1FFB9
:1050E000FFF80000000000001FFFFFFFCE73FFFF6E
:1050F000FE0000FFFFFFFF803FFFF8000000000000
:10510000001FFFFFFFCE33FFFFFE0000FFFFFFFF8A
:10511000001FFFF80000000000001FFFFFFFCF038B
:10512000FFFFFFFFFFFFFFFFFE339FFFF8000000C0
:105130000000001FFFFFFFEF87FFFFFFFFFFFFFFE4
:10514000FFFE739FFFF80000000000001FFFFFFF3D
:10515000FFFFFFFFFFFE03FFFFFFFE739FFFF8004F
:105160007FC003FE001FFFFFFFFE7FFFFFFFF80170
:10517000FFFFFFFE139FFFF800FFC003FF001FFFAC
:10518000FFFFF00FFFFFFFF9F8FFFFFFFF033FFFF7
:10519000F800FFC003FF001FFFFFFFE007FFFFFF56
:1051A000F1FCFFFFFFFFE7FFFFF800FFC003FF0078
:1051B0001FFFFFFFC7E3FFFFFFF3FCFFFFFFFFFF42
:1051C000FFFFF800FFC003FF001FFFFFFFCFF3FF4B
:1051D000FFFFF1FCFFFFFFFFFFFFFFF800FFC00331
:1051E000FF001FFFFFFFCFF3FFFFFFF8F8FFFFFFF8
:1051F000FE001FFFF800FFC003FF001FFFFFFFC7F7
:10520000F3FFFFFFF801FFFFFFFE001FFFF800FFA5
:10521000C003FF001FFFFFFFE3C7FFFFFFFE07FF05
:10522000FFFFFF3FFFFFF800FFC003FF001FFFFF6E
:10523000FFF007FFFFFFFFFFFFFFFFFE7FFFFFF80D
:1052400000FFC003FF001FFFFFFFFC3FFFFFFFFF4A
:10525000FFFFFFFFFE7FFFFFF800FFFFFFFF001FC4
:10526000FFFFFFFFFFFFFFFFF000FFFFFFFE7FFFDD
:10527000FFF800FFFFFFFF001FFFFFFFFFFFFFFF23
:10528000FFF000FFFFFFFE7FFFFFF800FFFFFFFFC3
:10529000001FFFFFF00003FFFFFFF8FFFFFFFFE02D
:1052A000001FFFFFFFFFFFFFFFFFFFFFFFF80003EF
:1052B000FFFFFFF9FFFFFFFFC0001FFFFFFFFFFF22
:1052C000FFFFFFFFFFFFFFFFFFFFFFFFF3FFFFFFFA
:1052D000FFCE7FFFFFFFFFFFFFFFFFFFFFFFFFFF8F
:1052E000FFFFFFFFFFFFFFFFFFFF8E7FFFFFF800C5
:1052F00000000000001FFFFFFFC01FFFFFFFFFFFB8
:10530000FFFFFFDFFFFFFFF80000000000001FFFAE
:10531000FFFFC007FFFFFFF1F8FFFFFFFFF83FFFB0
:10532000F80000000000001FFFFFFFFFC3FFFFFFAA
:10533000F1F8FFFFFFFF301FFFF800000000000042
:105340001FFFFFFFFFF3FFFFFFFFFFFFFFFFFE73E6
:105350009FFFF80000000000001FFFFFFFFFF3FFAA
:10536000FFFFFFFFFFFFFFFE739FFFF8007FC001FD
:10537000FE001FFFFFFFFFF7FFFFFFFFFFFFFFFF25
:10538000FE77BFFFF800FFC003FF001FFFFFFFC055
:1053900003FFFFFFFFFFFFFFFFFE001FFFF800FFFF
:1053A000C003FF001FFFFFFFC003FFFFFFFFFFFF62
:1053B000FFFFFF001FFFF800FFC003FF001FFFFFFC
:1053C000FFFFFFFFFFFFFFFFFFFFFFFFFFFFFFF8F4
:1053D00000FFC003FF001FFFFFFFFFFFFFFFFFFFF6
:1053E000FFFFFFFFFFFFFFFFF800FFC003FF001FED
:1053F000FFFFFFCFFFFFFFFFFFFFFFFFFFFFF1FFFB
:10540000FFF800FFC003FF001FFFFFFFCFFFFFFFFC
:10541000FF0000FFFFFFFF807FFFF800FFC003FFDA
:10542000001FFFFFFE0007FFFFFF0000FFFFFFFF61
:105430000C3FFFF800FFC003FF001FFFFFFE00034B
:10544000FFFFFF3E7CFFFFFFFE3F1FFFF800FFC096
:1054500003FF001FFFFFFFCFF3FFFFFF3E7CFFFFB7
:10546000FFFE7F9FFFF800FFFFFFFF001FFFFFFF12
:10547000CFF3FFFFFF3E7CFFFFFFFE7F9FFFF800A3
:10548000FFFFFFFF001FFFFFFFFFFFFFFFFF083CC5
:10549000FFFFFFFE7F9FFFF800FFFFFFFF001FFFE2
:1054A000FFFFFFFFFFFFFF8100FFFFFFFFFFFFFF89
:1054B000FFFFFFFFFFFFFFFFFFFFF8C003FFFFFF3E
:1054C000C781FFFFFFFFFFFFFFFFFFFFFFFFFFFFA2
:1054D000FFFFFFF8C003FFFFFFFFFFFFFFFFFFC05D
:1054E000FFFFFFFFFFFFFFFFFFFFFFFFFFFFFFFFCC
:1054F000FFFFFFFFFFFFFFFF003FFFF8000000007E
:1055000000001FFFFFFFFFFFFFFFFE0000FFFFFF88
:10551000FF331FFFF80000000000001FFFFFFFF82F
:105520001FFFFFFE0000FFFFFFFE739FFFF800005C
:10553000000000001FFFFFFFE007FFFFFFFFFFFF6E
:10554000FFFFFE739FFFF80000000000001FFFFF39
:10555000FFE3C3FFFFFFFFFFFFFFFFFE739FFFF8A7
:105560000000000000001FFFFFFFC7F3FFFFFFFF69
:10557000F3FFFFFFFF039FFFF80000000000001F84
:10558000FFFFFFCFF3FFFFFFF9C0FFFFFFFF83BF68
:10559000FFFF000003FFFFFFFFFFFFFFCFF3FFFF51
:1055A000FFF988FFFFFFFFFFFFFFFFF000007FFF15
:1055B000FFFFFFFFFFC7E3FFFFFFF39CFFFFFFFFBE
:1055C000FFFFFFFFFE000007FFFFFFFFFFFFE007F9
:1055D000FFFFFFF39CFFFFFFFF3F1FFFFFFFE00008
:1055E00000FFFFFFFFFFFFF00FFFFFFFF199FFFF3D
:1055F000FFFE3F1FFFFFFFFE00000FFFFFFFFFFF4B
:10560000FFFFFFFFFFF800FFFFFFFF7FBFFFFFFF70
:10561000FFC00001FFFFFFFFFFFFFFFFFFFFFC00D8
:10562000FFFFFFFFFFFFFFFFFFFFFC00001FFFFF6B
:10563000FFFFFFFFFFFFFFFFFFFFFFFFFFFFFFFF7A
:10564000FFFFFFFFC00003FFFFFFFFC003FFFFFFDF
:10565000FFFFFFFFFFFFFFFFFFFFFFFFFFF0000067
:105660003FFFFFFFC003FFFFFFFF07FFFFFFFFFF3D
:10567000FFFFF80000000000001FFFFFFFE7FFFF33
:10568000FFFFFC01FFFFFFFFFFFFFFF8000000002E
:1056900000001FFFFFFFCFFFFFFFFFF8F8FFFFFF36
:1056A000FFFFFFFFF80000000000001FFFFFFFCF1B
:1056B000FFFFFFFFF1FCFFFFFFFFFFFFFFF8000010
:1056C000000000001FFFFFFFC7FFFFFFFFF3FCFF0D
:1056D000FFFFF03F1FFFF80000000000001FFFFF6A
:1056E000FFE003FFFFFFF3FCFFFFFFE01F9FFFFF53
:1056F000FFFFFFFFFFFFFFFFFFFFF003FFFFFFF9CB
:10570000FCFFFFFFE30F9FFFFFFFFFFFFFFFFFFF18
:10571000FFFFFFFFFFFFFFFFFFFFFFFFFFE78F9F81
:10572000FFFFFFFFFFFFFFFFFFFFFFFFFFFFFFFF89
:10573000FFFFFFFFFFFFE7C79FFFFFFFFFFFFFFF29
:10574000FFFFFFFFFFE7F3FFFFFE0000FFFFFFE7A4
:10575000E21FFFFFFFF000007FFFFFFFFFFFC7E337
:10576000FFFFFE0000FFFFFFE7E03FFFFFFF00003D
:105770000007FFFFFFFFFFE7F3FFFFFFFF9FFFFFB4
:10578000FFFFF87FFFFFF8000000007FFFFFFFFF33
:10579000FFFFFFFFFFFF07FFFFFFFFFFFFFFFFC050
:1057A000000000001FFFFFFFFFFFFFFFFFFFFC03E4
:1057B000FFFFFFFFFFFFFFFF000000000007FFFFEC
:1057C000FFFFFFFFFFFFFFF8F0FFFFFFE0001FFFFD
:1057D000FC00007FF00001FFFFFFFFFFFFFFFFFF66
:1057E000F1F8FFFFFFE0001FFFF80007FFFF0000D8
:1057F000FFFFFFFFFFFFFFFFFFF7FEFFFFFFE7E7F2
:10580000FFFFF0003FFFFFE0007FFFFFFFFFFFFF14
:10581000FFFFFFFFFFFFFFE7E7FFFFE0007FFFFF66
:10582000F0003FFFFFFFFFFFFFFFFFFFE3FFFFFF72
:10583000E7E7FFFFE000FFFFFFFC001FFFFFFE7F29
:10584000C3FFFFFFFF81FFFFFFE7C7FFFFC001FFAF
:10585000C00FFC001FFFFFFCFF03FFFFFF8318FFCB
:10586000FFFFE00FFFFFC003FFC00FFE001FFFFFA1
:10587000FCFE33FFFFFF007CFFFFFFF01FFFFFC0B8
:1058800003FFC00FFE001FFFFFFCFC73FFFFFF3C88
:105890007CFFFFFFFC7FFFFFC003FFC00FFE001F68
:1058A000FFFFFCF8F3FFFFFF3C1CFFFFFFFFFFFFC4
:1058B000FFC001FFC00FFC001FFFFFFC01F3FFFF53
:1058C000FF390CFFFFFFFFFFFFFFE000FFC00FF8F5
:1058D000001FFFFFFE03F3FFFFFF83C1FFFFFFE099
:1058E000001FFFE0007FC00FF0001FFFFFFFFFF36E
:1058F000FFFFFFCFE1FFFFFFE0001FFFF0003FC011
:105900000780001FFFFFFFFFFFFFFFFFFF80FFFF7C
:10591000FFFFFFFFFFF8003FC00000001FFFFFFF79
:10592000F0FFFFFFFFFF0CFFFFFFFFFFFFFFFE0089
:105930007FC00000001FFFFFFF000FFFFFFFFFFE03
:10594000FFFFFFFFFFFFFFFF81FFC00000001FFF01
:10595000FFFE0007FFFFFFFFFFFFFFFFFFFFFFFF4F
:10596000FFE3FFC00000001FFFFFFC7FE3FFFFFF1E
:105970000FFFFFFFFFFFFFFFFFFFFFFFFFFFFFFF27
:10598000FFFFFFFCFFF3FFFFFF007FFFFFFFFFFFB5
:10599000FFFFFFFFFFFFFFFFFFFFFFFFFCFFF3FF26
:1059A000FFFFE003FFFFFFFFFFFFFFFFFFFFFFFF22
:1059B000FFFFFFFFFFFC7FC3FFFFFFFF80FFFFFF35
:1059C000FFFFFFFFFFFFFFFFFFFFFFFFFFFFFE00E7
:1059D00007FFFFFFFFF0FFFFFFFFFFFFFFF80000E3
:1059E000000000001FFFFFFF801FFFFFFFFF00FF01
:1059F000FFFFFFFFFFFFF80000000000001FFFFF98
:105A0000FFFFFFFFFFFFE00FFFFFFFFFFFFFFFF8BC
:105A1000000007E000001FFFFFFFF07FFFFFFF0116
:105A2000FFFFFFFFFFFFFFFFF80001FFFF80001FE8
:105A3000FFFFFF000FFFFFFF07FFFFFFFFFFFFFF5D
:105A4000FFF80007FFFFE0001FFFFFFC0707FFFF55
:105A5000FF003FFFFFFFFFFFFFFFF8001F8001FF78
:105A6000FFFFFFFFFCFFE3FFFFFFF801FFFFFFFF6A
:105A7000FFFFFFF8003E0FF07FFFFFFFFFFCFFF38B
:105A8000FFFFFFFFE0FFFFFFFFFFFFFFF8007C3F8E
:105A9000FC3FFFFFFFFFFCFFF3FFFFFFFFE0FFFF07
:105AA000FFFFFFFFFFF800F87FFE1FFFFFFFFFFC77
:105AB0003FC3FFFFFFF801FFFFFFFFFFFFFFF800FD
:105AC000F87FFF1FFFFFFFFFFE0007FFFFFF003F04
:105AD000FFFFFFFFFFFFFFF800F87FFE1FFFFFFF44
